:0400000031EF04F0E8
:08000800046ED8CF05F0E0CF33
:1000100006F00001E9CF0CF0EACF07F0E1CF08F0DD
:10002000E2CF09F0D9CF0AF0DACF0BF0F3CF12F01C
:10003000F4CF13F0FACF14F000C00EF001C00FF0AF
:1000400002C010F003C011F0F2A82AEF00F0F2B2E3
:1000500057EF00F0F0A630EF00F0F0B05FEF00F0E7
:10006000F0A836EF00F0F0B268EF00F00EC000F03C
:100070000FC001F010C002F011C003F00CC0E9FF86
:1000800007C0EAFF078E08C0E1FF09C0E2FF0AC00F
:10009000D9FF0BC0DAFF12C0F3FF13C0F4FF14C086
:1000A000FAFF045006C0E0FF05C0D8FF1000162A72
:1000B00016500A0801E1166AF29236EF00F01606B1
:1000C0001650FF0802E1090E166EF09036EF00F0B0
:1000D00016520AE1010ED8801756175202E18A968D
:1000E00001D08A86939673D0162C0AD0010ED88040
:1000F0001856185202E18A9801D08A88939867D0DE
:10010000165002080AE1010ED8801956195202E170
:100110008B9001D08B8094905AD0165003080AE13E
:10012000010ED8801A561A5202E18B9201D08B82AE
:1001300094924DD0165004080AE1010ED8801B5647
:100140001B5202E18B9401D08B84949440D01650C2
:1001500005080AE1010ED8801C561C5202E18B965C
:1001600001D08B86949633D0165006080AE1010E12
:10017000D8801D561D5202E18B9801D08B8894982F
:1001800026D0165007080AE1010ED8801E561E52CE
:1001900002E18B9A01D08B8A949A19D016500808E4
:1001A0000AE1010ED8801F561F5202E18B9C01D03C
:1001B0008B8C949C0CD01650090809E1010ED88054
:1001C0002056205202E18B9E01D08B8E949EF0929D
:1001D00036EF00F04D617175696E6120303120207D
:1001E00020004C696761646F202020004465736CB7
:1001F000696761646F004D617175696E61203032AD
:10020000202020004C696761646F20202000446535
:10021000736C696761646F004D617175696E61200F
:100220003033202020004C696761646F202020005B
:100230004465736C696761646F004D617175696EC7
:1002400061203034202020004C696761646F2020D9
:1002500020004465736C696761646F004D6171755E
:10026000696E61203035202020004C696761646F21
:10027000202020004465736C696761646F004D61E4
:100280007175696E61203036202020004C696761ED
:10029000646F202020004465736C696761646F009F
:1002A0004D617175696E61203037202020004C69E6
:1002B0006761646F202020004465736C6967616426
:1002C0006F004D617175696E61203038202020000B
:1002D0004C696761646F202020004465736C696716
:1002E00061646F004D617175696E61203039202045
:1002F00020004C696761646F202020004465736CA6
:10030000696761646F004D617175696E612031309C
:10031000202020004C696761646F20202000446524
:10032000736C696761646F00496E696369616E64CB
:100330006F002E002E002E00EA6A260EE96EEF50A6
:100340000DE0020E016E006A002EFED7012EFBD7D3
:10035000970E006E002EFED7EF2EF3D712002BB0B3
:1003600002D08C9801D08C8895982BB202D08C9AB0
:1003700001D08C8A959A2BB402D08C9C01D08C8CA5
:10038000959C2BB602D08C9E01D08C8E959E000041
:100390008C84959400D000D08C94959412002C6A93
:1003A0009588000E83B8010E2C12958A000E83BA30
:1003B000010E006ED890003600502C12958C000E65
:1003C00083BC010E006E00360036FC0E0016005095
:1003D0002C12958E000E83BE010E006E0036003684
:1003E0000036F80E001600502C122CC001F012003E
:1003F0009588958A958C958E8C82959200008C8438
:1004000095940000CCDF01C02BF08C9495940000F3
:100410008C84959400D0C3DF01C02AF08C9495940D
:100420009598959A959C959E2B38006EF00E001627
:1004300000502A10016E23EF02F09594959095924A
:100440008C909590D5D701C02AF001BEFBD72852D9
:1004500002E18C9001D08C80959000008C92959256
:1004600000008C94959429382A6E0F0E2A162AC003
:100470002BF075DF29500F0B2A6E2B6E70DF1200E8
:10048000280E226E0C0E236E010E246E060E256EB3
:100490008C9495948C9095908C9295929598959A31
:1004A000959C959E9594959095920F0E266E44DF9F
:1004B000010E216E2150030808E3030E2B6E4FDF5F
:1004C000050E266E39DF212AF5D7020E2B6E47DF87
:1004D000050E266E31DF216A215003080FE3036AFF
:1004E0002150220FE96E000E0320EA6EEFCF26F0B6
:1004F000286A26C029F0A1DF212AEED746EF04F0B2
:10050000252C01D003D0400E266E01D0266A010EA4
:10051000245C262626508009276E286A296E8DDFE6
:1005200012002350070A07E00B0A0AE0060A10E04F
:10053000020A14E018D0010E246E256EE1DF18D0F7
:10054000286A010E296E79DF020E266EF5DE10D0C4
:10055000010E246E020E256ED3DF0AD0286A100E1B
:10056000296E6BDF05D0010E286E23C029F065DFF0
:10057000C4EF02F00900F5520CE0F6CF21F0F7CFFE
:1005800022F0F5CF23F0CDD721C0F6FF22C0F7FF30
:10059000F1D71200165221E1010E246E256EB0DF54
:1005A000D40EF66E010EF76EE5DF172C0BD0010EA0
:1005B000246E020E256EA4DFE20EF66E010EF76EBB
:1005C000D9DF0AD0010E246E020E256E99DFEC0EE3
:1005D000F66E010EF76ECEDF42D1162C21D0010E41
:1005E000246E256E8DDFF60EF66E010EF76EC2DFFD
:1005F000182C0BD0010E246E020E256E81DF040E26
:10060000F66E020EF76EB6DF0AD0010E246E020EF1
:10061000256E76DF0E0EF66E020EF76EABDF1FD183
:100620001650020821E1010E246E256E69DF180EB6
:10063000F66E020EF76E9EDF192C0BD0010E246EA3
:10064000020E256E5DDF260EF66E020EF76E92DF4D
:100650000AD0010E246E020E256E52DF300EF66EA9
:10066000020EF76E87DFFBD01650030821E1010E62
:10067000246E256E45DF3A0EF66E020EF76E7ADFB7
:100680001A2C0BD0010E246E020E256E39DF480E97
:10069000F66E020EF76E6EDF0AD0010E246E020EA9
:1006A000256E2EDF520EF66E020EF76E63DFD7D088
:1006B0001650040821E1010E246E256E21DF5C0E28
:1006C000F66E020EF76E56DF1B2C0BD0010E246E59
:1006D000020E256E15DF6A0EF66E020EF76E4ADF09
:1006E0000AD0010E246E020E256E0ADF740EF66E1D
:1006F000020EF76E3FDFB3D01650050821E1010E60
:10070000246E256EFDDE7E0EF66E020EF76E32DF73
:100710001C2C0BD0010E246E020E256EF1DE8C0E09
:10072000F66E020EF76E26DF0AD0010E246E020E60
:10073000256EE6DE960EF66E020EF76E1BDF8FD08C
:100740001650060821E1010E246E256ED9DEA00E9A
:10075000F66E020EF76E0EDF1D2C0BD0010E246E0E
:10076000020E256ECDDEAE0EF66E020EF76E02DFC5
:100770000AD0010E246E020E256EC2DEB80EF66E91
:10078000020EF76EF7DE6BD01650070821E1010E5E
:10079000246E256EB5DEC20EF66E020EF76EEADE30
:1007A0001E2C0BD0010E246E020E256EA9DED00E7B
:1007B000F66E020EF76EDEDE0AD0010E246E020E19
:1007C000256E9EDEDA0EF66E020EF76ED3DE47D091
:1007D0001650080821E1010E246E256E91DEE40E0C
:1007E000F66E020EF76EC6DE1F2C0BD0010E246EC5
:1007F000020E256E85DEF20EF66E020EF76EBADE82
:100800000AD0010E246E020E256E7ADEFC0EF66E04
:10081000020EF76EAFDE23D01650090820E1010E5C
:10082000246E256E6DDE060EF66E030EF76EA2DEEA
:10083000202C0BD0010E246E020E256E61DE140EEC
:10084000F66E030EF76E96DE0AD0010E246E020ECF
:10085000256E56DE1E0EF66E030EF76E8BDE7FEFF4
:1008600004F0F86AD09E078E166A176A186A196A29
:100870001A6A1B6A1C6A1D6A1E6A1F6A206AC150B6
:10088000C00B0F09C16E070EB46EFAD5280EF66EB6
:10089000030EF76E6FDE020E216EFA0E266E4CDD31
:1008A000212EFBD7320EF66E030EF76E63DE020EBC
:1008B000216EFA0E266E40DD212EFBD7340EF66E29
:1008C000030EF76E57DE020E216EFA0E266E34DD31
:1008D000212EFBD7360EF66E030EF76E4BDE020EA0
:1008E000216EFA0E266E28DD212EFBD7F292F090B3
:1008F000F092F288F086F088C00EF2124BD6FED746
:020900000300F2
:020000040030CA
:0E00000000C21E1E008781000FC00FE00F40DF
:00000001FF
;PIC18F4520
;CRC=FD59  CREATED="13-out-23 17:14"
