:1000000070EF01F04D6963726F636F6E74726F6CA5
:1000100061646F720A00EA6A350EE96EEF500DE016
:10002000020E016E006A002EFED7012EFBD7970E3E
:10003000006E002EFED7EF2EF3D712003CB002D098
:100040008C9801D08C8895983CB202D08C9A01D0C3
:100050008C8A959A3CB402D08C9C01D08C8C959C57
:100060003CB602D08C9E01D08C8E959E00008C8474
:10007000959400D000D08C94959412003D6A958898
:10008000000E83B8010E3D12958A000E83BA010E50
:10009000006ED890003600503D12958C000E83BC47
:1000A000010E006E00360036FC0E001600503D12A8
:1000B000958E000E83BE010E006E003600360036AF
:1000C000F80E001600503D123DC001F01200958858
:1000D000958A958C958E8C82959200008C8495944F
:1000E0000000CCDF01C03CF08C94959400008C841F
:1000F000959400D0C3DF01C03BF08C949594959803
:10010000959A959C959E3C38006EF00E0016005016
:100110003B10016E12009594959095928C9095905D
:10012000D6DF01C03BF001BEFBD7395202E18C9013
:1001300001D08C80959000008C92959200008C9458
:1001400095943A383B6E0F0E3B163BC03CF076DF81
:100150003A500F0B3B6E3C6E71DF1200280E316E71
:100160000C0E326E010E336E060E346E8C94959426
:100170008C9095908C9295929598959A959C959E39
:100180009594959095920F0E356E45DF010E306E69
:100190003050030808E3030E3C6E50DF050E356E49
:1001A0003ADF302AF5D7020E3C6E48DF050E356E79
:1001B00032DF306A305003080FE3036A3050310FEA
:1001C000E96E000E0320EA6EEFCF35F0396A35C0D4
:1001D0003AF0A1DF302AEED7B0EF01F0362C01D093
:1001E00003D0400E376E01D0376A010E355C3726DA
:1001F00037508009386E396A3A6E8DDF12003250FE
:10020000070A07E00B0A0AE0060A10E0020A14E0F7
:1002100018D0010E356E366EE1DF18D0396A010E46
:100220003A6E79DF020E356EF6DE10D0010E356EB5
:10023000020E366ED3DF0AD0396A100E3A6E6BDFCB
:1002400005D0010E396E32C03AF065DF12000900A8
:10025000F5520CE0F6CF30F0F7CF31F0F5CF32F0B9
:10026000CEDF30C0F6FF31C0F7FFF1D7B8EF01F0B5
:10027000EF520FE0EACF31F0E9CF30F0EFCF32F0BC
:10028000BEDF31C0EAFF30C0E9FFE92AD8B4EA2A6C
:10029000EFD7BCEF01F0326A036A32503024E96EC6
:1002A00031500320EA6EEF5202E0322AF5D732C015
:1002B00001F0C7EF01F032C035F033C036F08EDF09
:1002C00006DF01C035F001BEFBD78C809590FFDEC4
:1002D00001C034F08C90959034C001F0DFEF01F054
:1002E000F86AD09EC150C00B0F09C16E070EB46EE4
:1002F00017D02A000453656C6563696F6E652061D1
:10030000204D617175696E61200053656C6563698C
:100310006F6E652061204D617175696E612000000E
:10032000000EF86E020EF76EF20EF66E0900F55032
:10033000006E000A13E00900F550016EE8BE05D01A
:100340000F0BEA6E0900F5CFE9FF01BC090001AC13
:100350000900F5CFEEFF004EE9D7F9D7F86AFED6CF
:10036000320E356E58DE040EF66E000EF76E6FD745
:10037000EA6A040EE96E7CD7080E306EFA0E356E0E
:100380004ADE302EFBD7316A040E306E84D701C0AE
:100390002EF0010E2F6E010E2E242F5C18E2010E9E
:1003A0002F5C036A040F016E000E032201C030F0BF
:1003B00003C031F02FC032F0020E336E7CD731C053
:1003C000EAFF30C0E9FF01C0EFFF2F2AE4D7010E9A
:1003D0002F6E2E502F5C1AE2010E2F5C036A190F4C
:1003E000016E000E032203C031F0036A2F50040F88
:1003F000E96E000E0320EA6EEFCF32F031C0EAFF63
:1004000001C0E9FF32C0EFFF2F2AE3D7010E2E5CB7
:10041000036A190FE96E000E0320EA6E04C0EFFFB5
:100420002F6A2E502F5C19E2036A2F50040F016EC1
:10043000000E032203C031F0036A2F50190FE96E3A
:10044000000E0320EA6EEFCF32F031C0EAFF01C0A8
:10045000E9FF32C0EFFF2F2AE4D7010E356E020EFE
:10046000366EBCDE2F6A2E502F5C0EE2036A2F50D0
:10047000190FE96E000E0320EA6EEFCF30F030C0A6
:1004800032F0BDDE2F2AEFD7020E306EFA0E356E37
:0A049000C2DD302EFBD77DD703003C
:020000040030CA
:0E00000000C21E1E008781000FC00FE00F40DF
:00000001FF
;PIC18F4520
;CRC=B38E  CREATED="13-out-23 16:08"
