:10000000A4EF04F0202054656D7065726174757200
:10001000613A20200A002020202025662025634305
:10002000202020202020200056656E74696C6125F8
:100030006325636F4C69676164610000496E6963A1
:1000400069616E646F002E002E002E00EA6A2D0E8C
:10005000E96EEF500DE0020E016E006A002EFED731
:10006000012EFBD7970E006E002EFED7EF2EF3D792
:10007000120034B002D08C9801D08C88959834B29C
:1000800002D08C9A01D08C8A959A34B402D08C9C80
:1000900001D08C8C959C34B602D08C9E01D08C8E75
:1000A000959E00008D82969200D000D08D929692FF
:1000B0001200356A9588000E83B8010E3512958AB4
:1000C000000E83BA010E006ED89000360050351233
:1000D000958C000E83BC010E006E00360036FC0EBF
:1000E000001600503512958E000E83BE010E006E74
:1000F000003600360036F80E00160050351235C0B6
:1001000001F012009588958A958C958E8C84959433
:1001100000008D8296920000CCDF01C034F08D92F9
:10012000969200008D82969200D0C3DF01C033F01A
:100130008D9296929598959A959C959E3438006EDE
:10014000F00E001600503310016EADEF00F09692E5
:10015000969095948D909690D5D701C033F001BEBE
:10016000FBD7315202E18D9001D08D809690000036
:100170008C94959400008D9296923238336E0F0EC7
:10018000331633C034F075DF32500F0B336E346EDC
:1001900070DF1200280E1C6E0C0E1D6E010E1E6EFE
:1001A000060E1F6E8D9296928D9096908C949594DB
:1001B0009598959A959C959E9692969095940F0EEB
:1001C0002D6E44DF010E1B6E1B50030808E3030E67
:1001D000346E4FDF050E2D6E39DF1B2AF5D7020E68
:1001E000346E47DF050E2D6E31DF1B6A1B5003088E
:1001F0000FE3036A1B501C0FE96E000E0320EA6E2A
:10020000EFCF20F0316A20C032F0A1DF1B2AEED7F9
:10021000E4EF04F02E2C01D003D0400E2F6E01D05D
:100220002F6A010E2D5C2F262F508009306E316A07
:10023000326E8DDF12002C50070A07E00B0A0AE02D
:10024000060A10E0020A14E018D0010E2D6E2E6E80
:10025000E1DF18D0316A010E326E79DF020E2D6EA9
:10026000F5DE10D0010E2D6E020E2E6ED3DF0AD0F9
:10027000316A100E326E6BDF05D0010E316E2CC06C
:1002800032F065DF12000900F5520CE0F6CF1FF0E6
:10029000F7CF20F0F5CF2CF0CEDF1FC0F6FF20C047
:1002A000F7FFF1D712001B361B361B36F80E1B1654
:1002B000380E1B161B5040091F6E316A326E47DF25
:1002C0001E6A1E50070812E31DC003F01C501C2AB2
:1002D000D8B41D2AE96E03C0EAFFEFCF1FF0010E6C
:1002E000316E1FC032F033DF1E2AEBD712008E0EA4
:1002F000006E1CC001F01BC002F0036A015209E14C
:1003000002C001F0026A080E005E015202E1006ABA
:1003100008D0D89001BE04D0023601360006F9D7C5
:10032000019E39EF05F02C50D8B471D0006E3050DA
:10033000D8B46DD0002604E3810E002668E204D014
:100340007F0E005E64E363E02DC034F03150341A58
:100350002D8E318E2F503302F4CF36F02E503202D4
:10036000F4CF03F0F3CF35F03302F3503626F450D8
:100370003522000E03222F503202F3503626F4505D
:100380003522000E026A032202222D503302F3505E
:100390003526F4500322000E02222D503202F35073
:1003A0000326F4500222000E016A01222F5031026E
:1003B000F3503526F4500322000E022201222E5063
:1003C0003102F3500326F4500222000E01222D5078
:1003D0003102F3500226F4500122002A01BE05D05A
:1003E00035360336023601360006000E35AE0AD029
:1003F000032A02220122015005E1025003E10350C9
:1004000001E1002A34BE018E34AE019E04D0006AA0
:10041000016A026A036A12001F50D8B4A5D02B6E7D
:100420002350D8B4A1D02B5E05E37F0E2B26D8B085
:100430009BD006D0810E2B5ED8A096D0D8B494D095
:100440002BC000F0016A026A036A2A6A20C029F000
:10045000298E21C028F022C027F0190E2B6E2650BD
:10046000275E0DE2010E285E0AE2295E08E22A5E9E
:1004700006E22A2A292A282A2650272628D025506B
:10048000285E12E2010E295E0FE22A5E0DE22A2AA0
:10049000292A255028262650272619E3282A17E13D
:1004A000292A15E12A2A13D024508009295E0EE258
:1004B000010E2A5E0BE22A2A2450800929262550A3
:1004C0002826E9E3292AE7E12A2AE5D703802B2E0B
:1004D00001D00BD0D8902736283629362A36D89026
:1004E0000336023601362C36BAD72CA006D0D89067
:1004F0000132023203322C3202D0000635E02CBE2B
:100500001ED0D8902736283629362A362650275E20
:1005100007E2010E285E04E2295E02E22A5E1AE387
:100520002550285E05E2010E295E02E22A5E12E3F2
:1005300024508009295E03E2010E2A5E0BE3032AA0
:1005400009E1022A07E1012A05E1002A0DE0013252
:100550000232033220C02BF024502B1A2BAE02D0D3
:10056000018E06D0019E04D0006A016A026A036A05
:1005700060EF05F00900F6CF20F0F7CF21F0F5CFBE
:100580002CF059DE20C0F6FF21C0F7FF1F2EF2D756
:1005900012002C50B6082C6E036A2DC030F02D8E40
:1005A000D8902D322E322F320332023201320032F5
:1005B0002C2EF6D730AE0BD0001E011E021E031EDD
:1005C000002AD8B4012AD8B4022AD8B4032A57EF93
:1005D00003F0D8B203D0EA6A340EE96E006A016A09
:1005E000026A036A346A356A366A376A33503210EF
:1005F000311030102CE0200E386ED8902C362D366D
:100600002E362F3634363536363637363350375C5D
:1006100008E13250365C05E13150355C02E1305082
:10062000345C0FE33050345E3150D8A0313C355E3D
:100630003250D8A0323C365E3350D8A0333C375EBF
:10064000D8800036013602360336382ED6D734C06D
:10065000EFFF35C0ECFF36C0ECFF37C0ECFF1200F7
:10066000E950246E2350266E19E022C02FF021C0DD
:100670002EF020C02DF01FC02CF0336A326A200EFD
:10068000316E820E306E4FDE03C022F002C021F0C8
:1006900001C020F000C01FF0262EE7D722C02FF0A7
:1006A00021C02EF020C02DF01FC02CF072D703C047
:1006B00022F002C021F001C020F000C01FF022AEE5
:1006C0000DD02406248A1F1E201E211E221E1F2A32
:1006D000D8B4202AD8B4212AD8B4222A3B0E2B6EB3
:1006E0009A0E2A6ECA0E296E286A0A0E266E2350AA
:1006F000D8B4242AD882EA6A1F0EE96E22C02FF0ED
:1007000021C02EF020C02DF01FC02CF02BC033F0E4
:100710002AC032F029C031F028C030F05ADF015031
:1007200000520FE12328265C0CE024500CE00F0B54
:10073000265C01E037E224BE35D024BC04D0200E74
:100740002DD0200E241624AA0CD0249A2350D8A4ED
:1007500024060050246E2D0E2C6E6DDD2450006E8C
:10076000246A2350265C0AE10050246E2E0E2C6E63
:1007700062DD2450006E200E2416000E300E24AAD6
:100780000DD0249A2350D8A424060050246E2D0E98
:100790002C6E51DD2450006E246A300E002600C0FD
:1007A0002CF049DDD8922BC02FF02AC02EF029C0A2
:1007B0002DF028C02CF0336A326A316A0A0E306E8E
:1007C00008DF03C02BF002C02AF001C029F000C0EE
:1007D00028F0262E8FD70AEF04F0010E2D6E2E6E14
:1007E00019DD040EF66E000EF76E4DDD160EF66E78
:1007F000000EF76E040E1F6EBDDE890EE96E1EC080
:1008000022F01DC021F01CC020F01BC01FF0020E02
:10081000236E26D7200E2C6E0EDDDF0E2C6E0BDD28
:100820001F0EF66E000EF76E080E1F6EA3DEC80ECA
:100830002D6E0CDC0AA020D0010E2D6E020E2E6E45
:10084000E9DC280EF66E000EF76E070E1F6E92DEC4
:100850002C6AF1DC010E2C6EEEDC330EF66E000E0F
:10086000F76E070E1F6E86DE020E1F6EFA0E2D6EDD
:1008700026EC00F01F2EFAD771EF05F01CC023F014
:100880002050231A23AE05D0D894D8901CBED8800F
:100890002FD01CC023F01FC024F01B50245E06E0A4
:1008A00023AE26D0D850010AD86E22D020C024F022
:1008B0001C50245E06E023AE1BD0D850010AD86E2F
:1008C00017D021C024F01D50245E06E023AE10D0C6
:1008D000D850010AD86E0CD022C024F01E50245EDD
:1008E00006E023AE05D0D850010AD86E01D0D890CA
:1008F00012001E6A1D6A700E1C6E840E1B6E09C0EB
:1009000022F008C021F007C020F006C01FF0B6DFBB
:1009100002E30A8011D009C01EF008C01DF007C014
:100920001CF006C01BF0226A216A340E206E840E71
:100930001F6EA4DF01E30A900AB002D08B9001D0B1
:100940008B80949072EF05F0F86AD09E056A046A75
:10095000096A086A076A066A0A90C150C00B0F0943
:10096000C16E070EB46E0B6A0E0E0C6E100E0D6E7D
:100970000E6E0E0E0F6E040E106E080E116E126AC1
:100980001F0E136E146A0E0E156E010E166E0F0EEC
:10099000176E110E186E0F0E196E1A6A010E926EF6
:1009A000000E946EC150C00B0E09C16EC050C00B3A
:1009B0000609C06EC08EC280000E016EC250C30B0D
:1009C0000110C26ECAEF00F0050E2D6E26EC00F08D
:1009D0003C0EF66E000EF76E56DC020E1B6EFA0E23
:1009E0002D6E26EC00F01B2EFAD7460EF66E000E8A
:1009F000F76E49DC020E1B6EFA0E2D6E26EC00F02F
:100A00001B2EFAD7480EF66E000EF76E3CDC020E77
:100A10001B6EFA0E2D6E26EC00F01B2EFAD74A0E36
:100A2000F66E000EF76E2FDC020E1B6EFA0E2D6EA8
:100A300026EC00F01B2EFAD71B6A1D6A0B0E1C6EEB
:100A400032DC010E1B6E1D6A130E1C6E2CDCC28282
:100A5000C2B2FED7C3CF04F0C4CF05F00C0E006EB7
:100A6000002EFED700D0000005C01CF004C01BF013
:100A70003ED42F6A2E6A7A0E2D6E870E2C6E03C01E
:100A800033F002C032F001C031F000C030F04BDC76
:100A900003C01EF002C01DF001C01CF000C01BF01E
:100AA00003C022F002C021F001C020F000C01FF0FE
:100AB000266AC00E256E7F0E246E880E236EACD47F
:100AC00003C009F002C008F001C007F000C006F042
:100AD00009C01EF008C01DF007C01CF006C01BF0C6
:080AE0007CD607D7B4D7030050
:020000040030CA
:0E00000000C21E1E008781000FC00FE00F40DF
:00000001FF
;PIC18F4520
;CRC=F3AC  CREATED="13-out-23 18:57"
