:100000005AEF01F0436F7261256325636F2025630A
:100010000000EA6A290EE96EEF500DE0020E016E53
:10002000006A002EFED7012EFBD7970E006E002E21
:10003000FED7EF2EF3D712002FB002D08C9801D04C
:100040008C8895982FB202D08C9A01D08C8A959A80
:100050002FB402D08C9C01D08C8C959C2FB602D0F2
:100060008C9E01D08C8E959E00008C84959400D03F
:1000700000D08C9495941200306A9588000E83B855
:10008000010E3012958A000E83BA010E006ED890D0
:10009000003600503012958C000E83BC010E006EAD
:1000A00000360036FC0E001600503012958E000E01
:1000B00083BE010E006E003600360036F80E0016C4
:1000C0000050301230C001F012009588958A958C4E
:1000D000958E8C82959200008C8495940000CCDFE4
:1000E00001C02FF08C94959400008C84959400D0DE
:1000F000C3DF01C02EF08C9495949598959A959CA9
:10010000959E2F38006EF00E001600502E10016ED6
:1001100090EF00F09594959095928C909590D5D70E
:1001200001C02EF001BEFBD72C5202E18C9001D011
:100130008C80959000008C92959200008C94959400
:100140002D382E6E0F0E2E162EC02FF075DF2D506F
:100150000F0B2E6E2F6E70DF1200280E256E0C0E08
:10016000266E010E276E060E286E8C9495948C9048
:1001700095908C9295929598959A959C959E95942C
:10018000959095920F0E296E44DF010E246E245037
:10019000030808E3030E2F6E4FDF050E296E39DFCB
:1001A000242AF5D7020E2F6E47DF050E296E31DFA8
:1001B000246A245003080FE3036A2450250FE96ED4
:1001C000000E0320EA6EEFCF29F02C6A29C02DF033
:1001D000A1DF242AEED795EF01F024362436243609
:1001E000F80E2416380E241624504009286E2C6A66
:1001F0002D6E90DF276A2750070812E326C003F010
:100200002550252AD8B4262AE96E03C0EAFFEFCF8D
:1002100028F0010E2C6E28C02DF07CDF272AEBD7AA
:100220001200292C01D003D0400E2A6E01D02A6A78
:10023000010E285C2A262A5080092B6E2C6A2D6E0E
:1002400069DF12002750070A07E00B0A0AE0060AD6
:1002500010E0020A14E018D0010E286E296EE1DFCA
:1002600018D02C6A010E2D6E55DF020E296ED1DEDC
:1002700010D0010E286E020E296ED3DF0AD02C6A30
:10028000100E2D6E47DF05D0010E2C6E27C02DF00D
:1002900041DF12000900F6CF25F0F7CF26F0F5CFA9
:1002A00027F0D0DF25C0F6FF26C0F7FF242EF2D7B7
:1002B000BAEF01F0F86AD09EC150C00B0F09C16EB1
:1002C000070EB46E12D0200004000E10100E0408A9
:1002D000001F000E010F110F00000A15110A040083
:1002E00000000A1F1F0E04000000000EF86E020E30
:1002F000F76EC60EF66E0900F550006E000A13E0A8
:100300000900F550016EE8BE05D00F0BEA6E09003A
:10031000F5CFE9FF01BC090001AC0900F5CFEEFF04
:10032000004EE9D7F9D7F86A18D70F0E296E71DE9B
:10033000246A266A040E256E50DF010E246E266A9A
:100340000C0E256E4ADF020E246E266A140E256EF0
:1003500044DF030E246E266A1C0E256E3EDF010E5E
:10036000286E296E5EDF040EF66E000EF76E040E28
:10037000246E90D7276A66DF010E276E63DF6F0E4B
:10038000276E60DF200E276E5DDF020E276E5ADFBC
:10039000090E286E010E296E44DF030E276E52DF10
:1003A000020E246EFA0E296E34DE242EFBD7090EBF
:1003B000286E010E296E35DF020E276E43DF020E16
:1003C000246EFA0E296E25DE242EFBD7E1D703001A
:020000040030CA
:0E00000000C21E1E008781000FC00FE00F40DF
:00000001FF
;PIC18F4520
;CRC=F188  CREATED="13-out-23 15:45"
